{
  "contractName": "SC1",
  "abi": [
    {
      "constant": true,
      "inputs": [],
      "name": "returnAdviezen",
      "outputs": [
        {
          "name": "",
          "type": "string[]"
        }
      ],
      "payable": false,
      "stateMutability": "view",
      "type": "function"
    },
    {
      "constant": false,
      "inputs": [
        {
          "name": "StationAfstand1",
          "type": "int256"
        }
      ],
      "name": "checkContract",
      "outputs": [],
      "payable": false,
      "stateMutability": "nonpayable",
      "type": "function"
    }
  ],
  "bytecode": "0x608060405234801561001057600080fd5b506104e0806100206000396000f3fe60806040526004361061004c576000357c0100000000000000000000000000000000000000000000000000000000900463ffffffff168063184bbae614610051578063df0861651461007c575b600080fd5b34801561005d57600080fd5b506100666100a5565b6040516100739190610406565b60405180910390f35b34801561008857600080fd5b506100a3600480360361009e9190810190610339565b61018e565b005b60606000805480602002602001604051908101604052809291908181526020016000905b82821015610185578382906000526020600020018054600181600116156101000203166002900480601f0160208091040260200160405190810160405280929190818152602001828054600181600116156101000203166002900480156101715780601f1061014657610100808354040283529160200191610171565b820191906000526020600020905b81548152906001019060200180831161015457829003601f168201915b5050505050815260200190600101906100c9565b50505050905090565b602381131561020c5760008060018154018082558091505090600182039060005260206000200160006040805190810160405280601481526020017f53746174696f6e41667374616e64312c6e756c6c00000000000000000000000081525090919091509080519060200190610205929190610280565b505061027d565b60008060018154018082558091505090600182039060005260206000200160006040805190810160405280601481526020017f53746174696f6e41667374616e64312c726f6f640000000000000000000000008152509091909150908051906020019061027a929190610280565b50505b50565b828054600181600116156101000203166002900490600052602060002090601f016020900481019282601f106102c157805160ff19168380011785556102ef565b828001600101855582156102ef579182015b828111156102ee5782518255916020019190600101906102d3565b5b5090506102fc9190610300565b5090565b61032291905b8082111561031e576000816000905550600101610306565b5090565b90565b60006103318235610458565b905092915050565b60006020828403121561034b57600080fd5b600061035984828501610325565b91505092915050565b600061036d82610435565b8084526020840193508360208202850161038685610428565b60005b848110156103bf5783830388526103a18383516103d0565b92506103ac8261044b565b9150602088019750600181019050610389565b508196508694505050505092915050565b60006103db82610440565b8084526103ef816020860160208601610462565b6103f881610495565b602085010191505092915050565b600060208201905081810360008301526104208184610362565b905092915050565b6000602082019050919050565b600081519050919050565b600081519050919050565b6000602082019050919050565b6000819050919050565b60005b83811015610480578082015181840152602081019050610465565b8381111561048f576000848401525b50505050565b6000601f19601f830116905091905056fea265627a7a72305820b55ddb9e44022052f910e2e2621167c5c30f4f7c242f5bdd0ca643469d7e3b016c6578706572696d656e74616cf50037",
  "source": "pragma experimental ABIEncoderV2;\npragma solidity ^0.5.0;\n\ncontract SC1 {string[] adviezen;\nfunction returnAdviezen() public view returns (string[] memory) {\n    return adviezen;\n}\nfunction checkContract(\nint StationAfstand1) public {if (StationAfstand1 > 35) { adviezen.push(\"StationAfstand1,null\"); } \nelse { adviezen.push(\"StationAfstand1,rood\"); } \n\n}\n}\r\n",
  "sourcePath": "C:/TruffleBlockchain/Blockchain/contracts/SC1.sol",
  "compiler": {
    "name": "solc",
    "version": "0.5.0+commit.1d4f565a.Emscripten.clang"
  },
  "schemaVersion": "3.0.9",
  "updatedAt": "2019-06-03T11:10:30.374Z",
  "devdoc": {
    "methods": {}
  },
  "userdoc": {
    "methods": {}
  }
}