{
  "contractName": "SC6",
  "abi": [
    {
      "constant": true,
      "inputs": [],
      "name": "returnAdviezen",
      "outputs": [
        {
          "name": "",
          "type": "string[]"
        }
      ],
      "payable": false,
      "stateMutability": "view",
      "type": "function"
    },
    {
      "constant": false,
      "inputs": [
        {
          "name": "BoomAfstand1",
          "type": "int256"
        },
        {
          "name": "StationAfstand1_1",
          "type": "int256"
        }
      ],
      "name": "checkContract",
      "outputs": [],
      "payable": false,
      "stateMutability": "nonpayable",
      "type": "function"
    }
  ],
  "bytecode": "0x608060405234801561001057600080fd5b50610573806100206000396000f3fe60806040526004361061004c576000357c0100000000000000000000000000000000000000000000000000000000900463ffffffff168063184bbae614610051578063414113d01461007c575b600080fd5b34801561005d57600080fd5b506100666100a5565b6040516100739190610499565b60405180910390f35b34801561008857600080fd5b506100a3600480360361009e91908101906103b9565b61018e565b005b60606000805480602002602001604051908101604052809291908181526020016000905b82821015610185578382906000526020600020018054600181600116156101000203166002900480601f0160208091040260200160405190810160405280929190818152602001828054600181600116156101000203166002900480156101715780601f1061014657610100808354040283529160200191610171565b820191906000526020600020905b81548152906001019060200180831161015457829003601f168201915b5050505050815260200190600101906100c9565b50505050905090565b601882121561020c5760008060018154018082558091505090600182039060005260206000200160006040805190810160405280601281526020017f426f6f6d41667374616e64312c67726f656e000000000000000000000000000081525090919091509080519060200190610205929190610300565b50506102fc565b604181121561028a5760008060018154018082558091505090600182039060005260206000200160006040805190810160405280601681526020017f53746174696f6e41667374616e64315f312c726f6f640000000000000000000081525090919091509080519060200190610283929190610300565b50506102fb565b60008060018154018082558091505090600182039060005260206000200160006040805190810160405280601681526020017f53746174696f6e41667374616e64315f312c726f6f6400000000000000000000815250909190915090805190602001906102f8929190610300565b50505b5b5050565b828054600181600116156101000203166002900490600052602060002090601f016020900481019282601f1061034157805160ff191683800117855561036f565b8280016001018555821561036f579182015b8281111561036e578251825591602001919060010190610353565b5b50905061037c9190610380565b5090565b6103a291905b8082111561039e576000816000905550600101610386565b5090565b90565b60006103b182356104eb565b905092915050565b600080604083850312156103cc57600080fd5b60006103da858286016103a5565b92505060206103eb858286016103a5565b9150509250929050565b6000610400826104c8565b80845260208401935083602082028501610419856104bb565b60005b84811015610452578383038852610434838351610463565b925061043f826104de565b915060208801975060018101905061041c565b508196508694505050505092915050565b600061046e826104d3565b8084526104828160208601602086016104f5565b61048b81610528565b602085010191505092915050565b600060208201905081810360008301526104b381846103f5565b905092915050565b6000602082019050919050565b600081519050919050565b600081519050919050565b6000602082019050919050565b6000819050919050565b60005b838110156105135780820151818401526020810190506104f8565b83811115610522576000848401525b50505050565b6000601f19601f830116905091905056fea265627a7a7230582031f75ade798726aa95af4890139bb79ccba71d67f8c998e2723dc8b2ef757d6b6c6578706572696d656e74616cf50037",
  "source": "pragma experimental ABIEncoderV2;\npragma solidity ^0.5.0;\n\ncontract SC6 {string[] adviezen;\nfunction returnAdviezen() public view returns (string[] memory) {\n    return adviezen;\n}\nfunction checkContract(\nint BoomAfstand1, int StationAfstand1_1) public {if (BoomAfstand1 < 24) { adviezen.push(\"BoomAfstand1,groen\"); } \nelse { if (StationAfstand1_1 < 65) { adviezen.push(\"StationAfstand1_1,rood\"); } \nelse { adviezen.push(\"StationAfstand1_1,rood\"); } \n } \n\n}\n}\r\n",
  "sourcePath": "C:/TruffleBlockchain/Blockchain/contracts/SC6.sol",
  "compiler": {
    "name": "solc",
    "version": "0.5.0+commit.1d4f565a.Emscripten.clang"
  },
  "schemaVersion": "3.0.9",
  "updatedAt": "2019-06-03T11:05:40.050Z",
  "devdoc": {
    "methods": {}
  },
  "userdoc": {
    "methods": {}
  }
}